:100000000C94A7030C94F0040C9410050C94270690
:100010000C94C5050C94C4030C94C4030C94C40341
:100020000C94C4030C94C4030C94E7070C94C4030D
:100030000C94C4030C942B0E0C94C4030C94C403B2
:100040000C94C4030C94C4030C94C4030C94DE11EC
:100050000C94C40354686520526F626F74206E65FF
:1000600065647320746F20626520726573657474B3
:100070006564206E6F772E0A0A00596F75206E65D1
:10008000656420746F20636865636B204D6F746FC7
:100090007220617373656D626C7920286F722079AC
:1000A0006F757220736F667477617265292E0A0A04
:1000B000000A0A28732E207461736B5F6D6F746F72
:1000C00072436F6E74726F6C28292066756E63744C
:1000D000696F6E20696E205250364C696221290A80
:1000E000000A0A232323204D4F544F52204F5645D8
:1000F0005243555252454E54202323230A00596F30
:1001000075206E65656420746F20636865636B207D
:10011000456E636F6465722F4D6F746F72206173EB
:1001200073656D626C7920286F7220796F7572200B
:10013000736F667477617265292E0A0A00210A0AB4
:1001400028732E207461736B5F6D6F746F72436FD1
:100150006E74726F6C28292066756E6374696F6E99
:1001600020696E205250364C696221290A0052499A
:10017000474854004C4546540041666665637465C3
:1001800064206368616E6E656C3A000A2323232045
:10019000454E434F44455220284F52204D4F544F17
:1001A0005229204D414C46554E4354494F4E212033
:1001B0002323230A00232323232320414C4C204FB5
:1001C0005045524154494F4E532053544F5050457F
:1001D0004420544F2050524556454E5420414E59CC
:1001E0002044414D414745212023232323230A0056
:1001F0000A0A232323232320454D455247454E43D6
:10020000592053485554444F574E2023232323232A
:100210000A000A0044697374616E63653A000A005B
:1002200042756D7048523A000A0042756D70484C34
:100230003A000A00414443313A000A004144433045
:100240003A000A004F6273523A000A004F62734C40
:100250003A000A0042756D70523A000A0042756D0C
:10026000704C3A000A004C69676874523A000A0000
:100270004C696768744C3A000A00506F7765725297
:100280003A000A00506F7765724C3A000A005370CA
:10029000656564523A000A0053706565644C3A0023
:1002A0000A004261743A002C20205265636874731E
:1002B0003A20004C696E6B733A200053746172747B
:1002C00065204D657373756E67656E2E2E2E3A0A26
:1002D00000465245493A20524543485453210A00AA
:1002E00042554D5045523A20524543485453210AF5
:1002F00000465245493A204C494E4B53210A004290
:10030000554D5045523A204C494E4B53210A004618
:100310005245493A20524543485453210A0048491E
:100320004E4445524E49533A205245434854532176
:100330000A00465245493A204C494E4B53210A0087
:1003400048494E4445524E49533A204C494E4B532E
:10035000210A0020286D696E2E20352E353056205A
:10036000626973206D61782E20392E35305629212F
:100370000A00484F4348004E494544524947000A45
:100380005741524E554E473A205350414E4E554ECE
:100390004720495354205A552000202D2D3E204FF0
:1003A0004B210A003A20004D657373756E67202358
:1003B00000537461727465203230204D657373751B
:1003C0006E67656E3A0A000A2A2A2A2A2A204D4FA9
:1003D000544F52454E20554E442053454E534F5294
:1003E000454E204F4B415921202A2A2A2A2A0A0009
:1003F0002323232323204269747465204D6F746F77
:100400007220756E6420456E636F64657220756539
:100410006265727072756566656E212023232323E1
:10042000230A002323232323202121212045532095
:1004300057555244454E204645484C455220464566
:10044000535447455354454C4C54202121212023DB
:10045000232323230A0023232323232323202121AF
:100460002120205741524E554E47205741524E555C
:100470004E47205741524E554E47202021212120E2
:10048000232323232323230A002323232323232378
:10049000204645484C4552205265636874732023BA
:1004A0002323232323230A00476573636877696E38
:1004B0006469676B656974205265636874733A2078
:1004C0004F4B0A0023232323232323204645484C54
:1004D0004552204C696E6B7320232323232323234F
:1004E000230A00476573636877696E6469676B65A3
:1004F0006974204C696E6B733A204F4B0A002323BA
:100500002323232323204645484C45523A20566551
:1005100072736F7267756E677370616E6E756E67FA
:1005200020697374207A7520676572696E67202868
:100530003C352E353056292120426974746520538C
:1005400070616E6E756E6773766572736F726775C4
:100550006E6720FC6265727072FC66656E212023F6
:100560002323232323230A0023232323232323209A
:100570005265636874733A205374726F6D73656E5D
:10058000736F722069737420646566656B742121D2
:10059000212047656D657373656E65205374726FB6
:1005A0006D6175666E61686D6520697374207A751A
:1005B00020676572696E672121202323232323236B
:1005C00023230A0023232323232323204C696E6B38
:1005D000733A205374726F6D73656E736F72206916
:1005E000737420646566656B742121212047656DF5
:1005F000657373656E65205374726F6D6175666E99
:1006000061686D6520697374207A75206765726909
:100610006E67212023232323232323230A0023235C
:100620002323232323205265636874733A20535491
:10063000524F4D4155464E41484D45204953542057
:100640005A5520484F434821202323232323232383
:10065000230A0023232323232323204C696E6B7357
:100660003A205354524F4D4155464E41484D452036
:10067000495354205A5520484F43482120232323CF
:1006800023232323230A00207C55423A2000207C88
:1006900049523A2000207C494C3A2000207C50529C
:1006A0003A2000207C504C3A2000207C56523A20C0
:1006B00000207C564C3A2000543A20000D0A002AB3
:1006C0002A2300232A2A000D0A0023232A007C0063
:1006D0002A2323000D0A00204C61737449443A20F8
:1006E0000049443A200057726F6E672049442072D7
:1006F00065636569766564212044657461696C731E
:100700003A0D0A003E0A007C000A3C4F4B7C000A6E
:10071000232A232A230A005B2F44454255475D0ABA
:10072000005B44454255475D0A005B2F4552524FDE
:10073000525D0A005B4552524F525D0A005B2F44E6
:100740004154415D0A005B444154415D0A0011245B
:100750001FBECFE5D8E0DEBFCDBF10E0A0E6B0E021
:10076000E2EFFBE302C005900D92AE3EB107D9F770
:1007700012E0AEEEB0E001C01D92A535B107E1F781
:100780000E94C6030C94F71D0C9400000E94CF0930
:100790000E94CC070E94C7070E9468120E94E10CC9
:1007A0000E947714FBCF80917601843010F0109274
:1007B0007601089584E080937601089587B38C775D
:1007C00087BB88B38C7788BB8091600183FF02C0B0
:1007D000BF9AC79A84FF02C0B99AC19A85FF02C026
:1007E000B89AC09A84B38F7884BB85B38F7885BB61
:1007F00094B320916001822F82958077982B94BBCF
:1008000095B3892B85BB80917601882319F4822FBB
:10081000211181E0809376010895809360010E9408
:10082000DE030895C098B898000096B380916001E7
:1008300085FF02C0B89AC09A892F81700895AE983A
:10084000A698000093B38091600182FF02C0A69A2F
:10085000AE9A892F80740895C798BF98000096B308
:100860008091600183FF02C0BF9AC79A892F807868
:100870000895AC98A498000093B38091600180FF24
:1008800002C0A49AAC9A892F80710895089590931C
:100890006800809367000895FF920F931F938091E3
:1008A000AF01833358F10E941204F82E0E941F04F6
:1008B000082F0E942C04182F0E943904982F809131
:1008C00061018F1561F48091C001801741F480911E
:1008D0008901811721F480917201891769F0F092E2
:1008E00061010093C0011093890190937201E0911E
:1008F0006700F091680009951092AF011F910F9168
:10090000FF900895369B03C020E030E009C080646A
:1009100087B986ED86B93699FECF349A24B135B1C0
:10092000C9010895806487B986ED86B9089536991E
:1009300056C02091FF00233039F1243028F42130B3
:1009400099F02230C8F408C0253089F1253020F113
:10095000263009F041C033C084B195B19093C401F1
:100960008093C30186E41FC084B195B19093C901FF
:100970008093C80185E417C084B195B19093BA0102
:100980008093B90183E40FC084B195B19093820143
:100990008093810182E407C084B195B19093A9014D
:1009A0008093A80180E487B986ED86B915C084B12B
:1009B00095B19093B7018093B60181E4F4CF84B1EF
:1009C00095B19093800180937F0187E487B986ED8C
:1009D00086B91092FF0008952F5F2093FF000895BD
:1009E0001F920F920FB60F9211248F939F938091B5
:1009F000BE019091BF0101969093BF018093BE010B
:100A00008091B4019091B50101969093B5018093C6
:100A1000B4019F918F910F900FBE0F901F9018956A
:100A20001F920F920FB60F9211248F939F93809174
:100A3000B0019091B10101969093B1018093B00102
:100A400080918A0190918B01019690938B01809304
:100A50008A019F918F910F900FBE0F901F90189554
:100A6000089590936600809365000895893C08F08E
:100A700088EC8093660110926701693C08F068EC8D
:100A800060936401109265010895282F8093F2000D
:100A90001092EE008150823018F481E08093EE00D5
:100AA000213021F080E090E0233011F481E090E0EB
:100AB0008093EF00089590E080915F01837009F4C6
:100AC00091E0892F089510926701109266011092AB
:100AD00065011092640110927101109270011092E0
:100AE000AE011092AD0180915F018C7F80935F0118
:100AF0008093C201E0916500F09166000995089528
:100B0000633D08F062ED6093870110928801833D98
:100B100008F082ED80937701109278010895809318
:100B2000F0006093F1008093EE006093EF00882363
:100B300011F0AA9A01C0AA98662311F0AB9A089501
:100B4000AB980895982F03C089B7806889BF8091BA
:100B50006B018823C9F7892F90E08F73907026E08E
:100B6000880F991F2A95E1F7262F30E02F733070F8
:100B7000822B932B906390938D0180938C018091B5
:100B80006A01806480936A0108951F920F920FB6E4
:100B90000F9211242F938F939F9380916000823046
:100BA000B0F52091FE002223C1F02C3338F480915F
:100BB000A6019091A70196FF07C008C08091A601E9
:100BC0009091A70196FF02C0979803C082B3805806
:100BD00082BB21502093FE0032C080916B0188239C
:100BE000A1F097988091A6019091A701880F991F75
:100BF0009093A7018093A60188E78093FE008091DF
:100C00006B01815080936B011AC0979818C0809136
:100C10006F01882391F080916A0180FD05C088B33F
:100C200090E4892788BB03C085B3805885BB809139
:100C30006F01815080936F0102C0C69AAF9A9F9155
:100C40008F912F910F900FBE0F901F9018951F92AC
:100C50000F920FB60F9211248F9380916000833012
:100C600011F0863069F480916A0184FD09C085FF26
:100C700007C0B29905C08091C1018F5F8093C10107
:100C800086B380916A018D7F80936A018F910F9066
:100C90000FBE0F901F901895089590936200809357
:100CA000610008950895909364008093630008950F
:100CB0008091830190918401029708F43BC1909147
:100CC0006A0194FD16C180916000823009F467C00A
:100CD000833030F4882371F0813009F010C111C0E5
:100CE000853009F4ACC0863009F4C1C0833009F006
:100CF00006C16DC089B78F7789BF9798C69AAF9A9A
:100D0000FEC080916B01882341F596FF14C080914D
:100D10008C0190918D019093A7018093A6018EE0A4
:100D200080936B0180916A018F7B80936A0189B700
:100D3000806889BF06C089B78F7789BF9798C69AA0
:100D4000AF9A8091FD008F5F8093FD0081508431C8
:100D500038F082E08093600003C089B7806889BF63
:100D600080916A0183FFCBC0E0916100F091620045
:100D70008091C5019091C60109958091C50190911E
:100D8000C60190937401809373011092C601109272
:100D9000C50180916A01877F80936A01B0C089B7DD
:100DA0008F7789BF9798C69AAF9A10926F01109269
:100DB000C1011092FC001092FB0080916A018E7FAD
:100DC000806280936A0183E08093FD0075C080910A
:100DD0006F01882381F48091FD008F5F8093FD0077
:100DE0008150833040F089B7806889BF88E2809362
:100DF0006F011092FD008091A201882321F0809163
:100E0000C101823020F48091C101863038F0109207
:100E1000C10181E08093A20185E04EC08091FB007A
:100E20009091FC0001969093FC008093FB00019749
:100E30000E9708F464C01092A20185E04FC089B7F4
:100E40008F7789BF9798C69AAF9A10926F011092C8
:100E5000C1011092FC001092FB0080916A01816236
:100E600080936A0183E08093FD0086E025C0809135
:100E70006F01882381F48091FD008F5F8093FD00D6
:100E80008150833040F089B7806889BF88E28093C1
:100E90006F011092FD008091AB01882321F08091B9
:100EA000C101823020F48091C101863040F010925F
:100EB000C10181E08093AB018093600020C08091EC
:100EC000FB009091FC0001969093FC008093FB0046
:100ED00001970E97A0F01092AB0181E08093600023
:100EE00089B78F7789BF9798C69AAF9A10926F018A
:100EF00006C01092FC001092FB001092FD002091A1
:100F0000A2018091FA00821731F49091F90080914A
:100F1000AB01981759F02093FA008091AB018093B0
:100F2000F900E0916300F09164000995109284014A
:100F30001092830108951092600089B78F7789BF5E
:100F40009798C69AAF9A1092AB011092A201089599
:100F500089B78F7789BF9798C69AAF9A1092AB01DD
:100F60001092A20181E08093600008958E98969877
:100F7000BB98C398C698AF9808958E9A969ABB98D6
:100F8000C39808958E989698BB9AC39A08958E9A9E
:100F9000969ABB9AC39A0895C49A80917601843038
:100FA00018F483E0809376010895C49880917601C7
:100FB000843060F4882331F420E030E080916001D7
:100FC000882311F021E030E02093760108951F92EC
:100FD0000F920FB60F9211242F933F934F935F936D
:100FE0006F937F938F939F93AF93BF9380915D0196
:100FF00090915E01019690935E0180935D018091D6
:10100000B8018F5F8093B8018091BB018F5F80939F
:10101000BB0181508A3008F447C18091900180FF64
:1010200009C0809191019091920101969093920153
:10103000809391018091900181FF09C0809193017B
:1010400090919401019690939401809393018091E3
:10105000900182FF09C080919501909196010196BF
:1010600090939601809395018091900183FF09C030
:1010700080919701909198010196909398018093A7
:1010800097018091900184FF09C08091990190910E
:101090009A01019690939A01809399018091900111
:1010A00085FF09C080919B0190919C0101969093CE
:1010B0009C0180939B018091900186FF09C08091E3
:1010C0009D0190919E01019690939E0180939D01B8
:1010D0008091900187FF09C080919F019091A001AC
:1010E00001969093A00180939F018091AC018F5F46
:1010F0008093AC018150893CE8F080918A01909105
:101100008B019093BD018093BC018091B4019091BB
:10111000B50190937A018093790110928B0110921E
:101120008A011092B5011092B40181E0809375019B
:101130001092AC0140917601433008F052C0423029
:1011400081F580916001882301F58091F7009091ED
:10115000F8009C012F5F3F4F3093F8002093F70079
:1011600068EC70E00E94571D892BD9F5215A3F4049
:1011700028F0B998C1981092760129C087B38427C6
:1011800087BB88B3842788BB2CC084FD02C0B99874
:10119000C1981092F8001092F70081E080937601D8
:1011A00020C08091F7009091F8002EE2813E9207D6
:1011B00098F0413049F4109276018091600184FDED
:1011C00006C0B998C19803C082E08093760110925E
:1011D000F8001092F70005C001969093F8008093F4
:1011E000F7008091830190918401039748F48091E6
:1011F00083019091840101969093840180938301EF
:101200008091A401873318F48F5F8093A4018091AB
:10121000AF01843328F48091AF018F5F8093AF01D9
:101220008091AA018F5F8093AA0181508330D0F111
:101230008091A501482F50E02091870130918801CD
:101240004217530759F04217530714F48F5F01C038
:1012500081508093A5018091A5018ABD8091C7012D
:10126000482F50E0209177013091780142175307C1
:1012700059F04217530714F48F5F01C081508093D7
:10128000C7018091C70188BD8091C701882321F4DF
:101290008091A501882319F082EA8FBD01C01FBC8F
:1012A0001092AA011092BB0180916A0183FD46C091
:1012B0002091F3003091F4004091F5004F5F40938E
:1012C000F500463190F036FD09C035FF07C0309378
:1012D000C6012093C501886080936A0180916A01EC
:1012E0008F7E80936A0120E030E09091F60086B313
:1012F000892782FF1FC090959093F600473040F4F5
:1013000080916A018F7E80936A0120E030E005C001
:101310002115310511F04F3068F080916A0180612C
:1013200080936A0136FD02C0220F331F92FF2160B5
:101330001092F5003093F4002093F300BF91AF9129
:101340009F918F917F916F915F914F913F912F91DD
:101350000F900FBE0F901F901895982F1092B80104
:101360008091B8018917E0F308959C0108C010929C
:10137000B8018091B8018A30E0F321503040211546
:101380003105A9F7089502C0000001970097E1F721
:101390000895D49ADC9A0895DC98D49808951BBADD
:1013A00018BA15BA81E082BB1ABA88E587BB8CE807
:1013B00084BB82EF81BBF894C598BD9A87B3979898
:1013C0000E94B60710BC8CE089B91BB886E880BDC6
:1013D00088E98AB917B886E186B910BE85E085BF6D
:1013E00080EE8BBF14BE8AE083BF83E68CBF82EAA7
:1013F0008FBD81E18EBD82ED90E097BD86BD1ABCA8
:1014000018BC80E060E00E948F0589E085BD8EE613
:1014100083BD82E089BF80916A01816080936A0107
:1014200081E080936000789408951F93182FF894BA
:1014300097980E94B6071092780110927701109247
:101440008801109287011092710110927001109220
:10145000AE011092AD011092C7011092A5011ABC05
:1014600018BC1FBC0E94D50780EF91E00E94120EAD
:1014700085EB91E00E94120E812F81508230C0F4E2
:101480008BE891E00E94120E89E791E00E94120E13
:10149000113019F484E791E002C08EE691E00E94D9
:1014A000120E8DE391E00E94120E8EEF90E00CC0C0
:1014B000133061F481EE90E00E94120E81EB90E017
:1014C0000E94120E8AE790E00E94120E84E590E0DE
:1014D0000E94120E16E3109360010E94DE032AE0C0
:1014E00008C0000001973FEF8F3F9307D1F72150CD
:1014F00019F080E090E8F6CF109260010E94DE03C0
:101500002AE005C000000197E9F7215021F380E0AF
:1015100090E0F9CF8091A401823308F47CC010924E
:10152000A4018091A101882309F041C08091C801E4
:101530009091C9018350934038F48091B901909102
:10154000BA0183509340F0F08091A3018F5F8093A4
:10155000A3018AE08093A101109278011092770193
:1015600010928801109287011092710110927001FF
:101570001092AE011092AD0180915F018460809362
:101580005F01089580915F018B7F80935F0180915F
:101590006C01853628F01092A30110926C0107C0EF
:1015A0008091A301833018F083E00E94150A809196
:1015B000C8019091C9018639910598F4809179010B
:1015C00090917A01892B69F480916601909167016D
:1015D000892B39F08091C701873918F081E00E948A
:1015E000150A8091B9019091BA018639910598F454
:1015F0008091BC019091BD01892B69F480916401B7
:1016000090916501892B39F08091A501873918F0F7
:1016100082E00E94150A80917501882309F4C3C1F4
:101620008091A101882309F0B9C18091A301882389
:1016300031F080916C018F5F80936C0102C0109239
:101640006C0140915F0141FF38C02091BE01309193
:10165000BF0180916201909163012817390780F0E2
:101660001092670110926601109271011092700140
:1016700010927801109277014D7F40935F011DC059
:101680002091BE013091BF0180917B0190917C013E
:101690002817390790F0809166019091670196951F
:1016A00087959093670180936601469730F486E1B1
:1016B00090E0909367018093660140915F0140FF45
:1016C00038C02091B0013091B10180918501909195
:1016D00086012817390780F0109265011092640185
:1016E0001092AE011092AD01109288011092870104
:1016F0004E7F40935F011DC02091B0013091B10138
:101700008091B2019091B3012817390790F0809130
:1017100064019091650196958795909365018093FA
:101720006401469730F486E190E0909365018093E0
:1017300064014091EE008091F000481739F49091D7
:10174000EF008091F100981709F479C020916601AB
:10175000309167012115310531F480916401909138
:101760006501892B61F130936901209368018091B3
:1017700064019091650190937E0180937D011092A8
:1017800067011092660110926501109264018091C8
:1017900070019091710162E070E00E946B1D709386
:1017A0007101609370018091AD019091AE0162E092
:1017B00070E00E946B1D7093AE016093AD0180914B
:1017C000BC019091BD014A97D0F48091790190912C
:1017D0007A014A97A0F48091660190916701892B64
:1017E00071F48091640190916501892B41F410920C
:1017F00088011092870110927801109277018FB5BD
:101800008823E9F4842F6091EF000E948F05809176
:1018100068019091690190936701809366018091BE
:101820007D0190917E0190936501809364011092F7
:101830007101109270011092AE011092AD014091B1
:101840006601509167018091790190917A019A0126
:10185000281B390BC9012091700130917101820F51
:10186000931F9093710180937001855A914034F0D9
:1018700084EA91E0909371018093700180917001EE
:10188000909171018C559E4F34F48CE59EEF9093AE
:101890007101809370018091790190917A01892B77
:1018A00031F4452B21F41092710110927001809156
:1018B00070019091710162E070E00E946B1D709365
:1018C000780160937701633D710534F082ED90E01B
:1018D00090937801809377018091770190917801BE
:1018E00097FF04C010927801109277014091640133
:1018F000509165018091BC019091BD019A01281B16
:10190000390BC9012091AD013091AE01820F931FB7
:101910009093AE018093AD01855A914034F084EAF2
:1019200091E09093AE018093AD018091AD019091D3
:10193000AE018C559E4F34F48CE59EEF9093AE0132
:101940008093AD018091BC019091BD01892B31F450
:10195000452B21F41092AE011092AD018091AD01A2
:101960009091AE0162E070E00E946B1D709388015F
:1019700060938701633D710534F082ED90E09093B0
:10198000880180938701809187019091880197FF5A
:1019900008C0109288011092870103C08150809383
:1019A000A1011092750190915F018091C201891788
:1019B00039F09093C201E0916500F09166000995BD
:1019C00008950E9497040E9458060E944C040E94A9
:1019D0008A0A0895FF920F931F93CF93DF93182FD6
:1019E000062FF22E80915F01836080935F0160E09B
:1019F00070E0CB01BA0120EB32E040E050E00E9401
:101A00002C1D24E630E040E050E00E947E1DE901FC
:101A1000C901845690409093B3018093B201909392
:101A20007C0180937B013093860120938501309364
:101A300063012093620128323105B0F484E190E023
:101A40009093860180938501909363018093620156
:101A50008AE090E09093B3018093B20190937C016F
:101A600080937B01C8E2D0E0193C18F018EC88ECB8
:101A700001C0812F80936601109267011093640169
:101A800010926501802F0E9445051092BF011092AF
:101A9000BE011092B1011092B001D0938F01C0939A
:101AA0008E01D0936E01C0936D0180915F01809390
:101AB000C201E0916500F09166000995FF2019F4DC
:101AC00006C00E94E10C80915F018370D1F7DF9125
:101AD000CF911F910F91FF9008951F93CF93DF93A4
:101AE000382FEA01122F80915F01836080935F019C
:101AF0001092B3011092B20110927C0110927B01FE
:101B0000373180F086EF9FEF831B9109880F991F73
:101B1000840F951F9093B3018093B20190937C0141
:101B200080937B01CE01029790938601809385017B
:101B30009093630180936201C832D105B8F484E1C7
:101B400090E0909386018093850190936301809348
:101B500062018AE090E09093B3018093B201909388
:101B60007C0180937B01C8E2D0E004C021E0C03951
:101B7000D20798F4393288F0CE01969587959695DC
:101B800087959E01281B390B3093B3012093B20136
:101B900030937C0120937B0138E21092BF011092B8
:101BA000BE011092B1011092B001393C18F038EC2E
:101BB00088EC01C0832F80936601109267013093F7
:101BC000640110926501862F0E944505D0938F0114
:101BD000C0938E01D0936E01C0936D0180915F011F
:101BE0008093C201E0916500F09166000995112390
:101BF00019F406C00E94E10C80915F018370D1F757
:101C0000DF91CF911F9108955D9BFECF8CB9089510
:101C1000FC0104C05D9BFECF31968CB98081882386
:101C2000C9F7089503C05D9BFECF2CB9FC01019656
:101C300024912223C1F70895FC01E40FF11D05C092
:101C40005D9BFECF31968CB961508081882311F065
:101C50006623B1F708951F920F920FB60F921124C9
:101C60002F938F939F93EF93FF9320910301809184
:101C70000201922F981B9032A8F480910101E82F65
:101C8000F0E09CB1E553FE4F90838F5F809301019C
:101C90002F5F20930301813210F010920101109206
:101CA000CA0106C08CB18093050181E08093CA010E
:101CB000FF91EF919F918F912F910F900FBE0F90F9
:101CC0001F9018951092CA01909102018091030112
:101CD000891711F4E0E013C09F5F90930201809197
:101CE0000001813210F01092000180910001E82F74
:101CF000F0E0E553FE4FE0818F5F809300018E2F6F
:101D00000895AC011092CA0120E016C09F5F909325
:101D1000020180910001E82FF0E0E553FE4F908131
:101D2000FA01E20FF11D90838F5F809300018132F1
:101D300010F0109200012F5F909102018091030139
:101D4000891B861718F7822F0895809103019091BF
:101D50000201891B089557988CB180930401109259
:101D600000011092010110920201109203011092E1
:101D7000CA01579A08950F931F93DF93CF93CDB75E
:101D8000DEB761970FB6F894DEBF0FBECDBF462F0A
:101D90008E010F5F1F4FB80150E00E94BE1DC801A9
:101DA0000E94080E61960FB6F894DEBF0FBECDBF3D
:101DB000CF91DF911F910F910895FF920F931F9381
:101DC000DF93CF93CDB7DEB761970FB6F894DEBF40
:101DD0000FBECDBF262FF42E8E010F5F1F4FB8010F
:101DE000422F50E00E94BE1DF80101900020E9F74B
:101DF0003197E01BF10B4F2D4E1B141664F480E35A
:101E000041505D9BFECF8CB94423D1F7CE010196A2
:101E10000E94080E05C04195C8016F2D0E941C0E3E
:101E200061960FB6F894DEBF0FBECDBFCF91DF91A4
:101E30001F910F91FF900895F89480B911B88FEF1A
:101E400083B984E086BF809106018160809306019A
:101E500078940895089590936A0080936900089596
:101E6000089590936C0080936B000895DF93CF9357
:101E70000F92CDB7DEB786E9898389818150898346
:101E80008F5FD9F70F90CF91DF910895DF93CF93B4
:101E90000F92CDB7DEB706B600FC6EC0809106018A
:101EA00080FF4EC080910D01882309F465C0813008
:101EB000C9F486E989838981815089838F5FD9F745
:101EC00092E090934F018091080180930F018091DF
:101ED0000901809310011092060185EA86BF909354
:101EE0000D014AC08230D9F486E989838981815005
:101EF00089838F5FD9F780910A018F5F80934F01AB
:101F00008091080181608093080180930F011092F5
:101F1000060185EA86BF83E080930D012DC08330E2
:101F200059F510920D0180910B0190910C012FEF4A
:101F30008F3F920709F1E0916900F0916A001BC0A0
:101F400006B600FCFDCF909107019923A9F01092ED
:101F50000D018091060181608093060110920801B5
:101F600010920C0110920B0110920A01E0916B008B
:101F7000F0916C00892F09950F90CF91DF91089512
:101F8000FF920F931F93182F062FF42E02C00E946A
:101F9000460F06B600FCFBCF80910D018823B9F7F0
:101FA00082E080930D011093080100930B011092C1
:101FB0000C01F0920A011F910F91FF900895EF928A
:101FC000FF920F931F93E82E162F042FF22E02C0BC
:101FD0000E94460F06B600FCFBCF80910D018823BE
:101FE000B9F781E080930D0110930B0110920C0161
:101FF000E092080100930901F0920A011F910F91EC
:10200000FF90EF9008959C0106B600FCFDCF8091F3
:10201000060180FF0CC0E0E2F1E0D90170E06E0F34
:102020007F1F02C081918D93E617F707D9F70895B6
:1020300006B600FCFDCF809107010895FF920F9333
:102040001F93CF93DF93082FF62EEA01122F02C0C1
:102050000E94460F06B600FCFBCF80910D0188233D
:10206000B9F781E080930D01009308018FEF9FEF96
:1020700090930C0180930B01F092090110930A01D7
:1020800002C00E94460F06B600FCFBCF80910D01F6
:102090008823B9F78091060180FF05C01F5FCE013C
:1020A000612F0E940310DF91CF911F910F91FF903C
:1020B0000895EF92FF920F931F93DF93CF930F92A8
:1020C000CDB7DEB7082F7B01142F02C00E94460F48
:1020D00006B600FCFBCF80910D018823B9F786E995
:1020E00089838981815089838F5FD9F782E08093CA
:1020F0000D01009308018FEF9FEF90930C018093E7
:102100000B0110930A0102C00E94460F06B600FCA4
:10211000FBCF80910D018823B9F78091060180FFE4
:1021200005C01F5FC701612F0E9403100F90CF9160
:10213000DF911F910F91FF90EF9008951F93DF9310
:10214000CF930F92CDB7DEB7182F02C00E94460F73
:1021500006B600FCFBCF80910D018823B9F786E914
:1021600089838981815089838F5FD9F782E0809349
:102170000D01109308018FEF9FEF90930C01809356
:102180000B0181E080930A0102C00E94460F8091FA
:102190000D018823D1F78091060180FD02C080E007
:1021A00002C0809120010F90CF91DF911F9108957F
:1021B0000F931F93DF93CF930F92CDB7DEB7182FF6
:1021C000062F02C00E94460F06B600FCFBCF80918E
:1021D0000D018823B9F786E9898389818150898334
:1021E0008F5FD9F782E080934F0110930F01009326
:1021F00010011092060185EA86BF0F90CF91DF9102
:102200001F910F910895FF920F931F93DF93CF9328
:102210000F92CDB7DEB7182F062FF42E02C00E9402
:10222000460F06B600FCFBCF80910D018823B9F75D
:1022300086E989838981815089838F5FD9F783E01B
:1022400080934F0110930F0100931001F092110140
:102250001092060185EA86BF0F90CF91DF911F9102
:102260000F91FF900895EF92FF920F931F93DF93CA
:10227000CF930F92CDB7DEB7182F062FF42EE22E94
:1022800002C00E94460F06B600FCFBCF80910D01F4
:102290008823B9F786E989838981815089838F5F93
:1022A000D9F784E080934F0110930F010093100140
:1022B000F0921101E09212011092060185EA86BFA8
:1022C0000F90CF91DF911F910F91FF90EF900895A4
:1022D000DF92EF92FF920F931F93DF93CF930F92B2
:1022E000CDB7DEB7182FF62EE42ED22E02C00E94F4
:1022F000460F06B600FCFBCF80910D018823B9F78D
:1023000086E989838981815089838F5FD9F785E048
:1023100080934F0110930F01F0921001E092110190
:10232000D0921201009313011092060185EA86BF34
:102330000F90CF91DF911F910F91FF90EF90DF9061
:102340000895EF92FF920F931F93DF93CF930F9215
:10235000CDB7DEB7082FF62EE72E142F02C00E944D
:10236000460F06B600FCFBCF80910D018823B9F71C
:1023700086E989838981815089838F5FD9F7412FCD
:102380004F5F40934F0100930F01A0E1B1E08F2D0B
:102390009E2D9C01F90102C081918D938E2F8F1982
:1023A0008417D0F31092060185EA86BF0F90CF9173
:1023B000DF911F910F91FF90EF9008951F920F9260
:1023C0000FB60F9211242F933F938F939F93EF9308
:1023D000FF9381B18832C9F0893240F4803199F09D
:1023E000883199F0883009F04BC00DC0803441F13C
:1023F000813420F4883309F043C03DC08035A9F012
:102400008835F1F52BC010920E0190910E0180914C
:102410004F01981750F5E92FF0E0E15FFE4F808102
:1024200083B99F5F90930E0117C080910E0193B105
:10243000E82FF0E0E15EFE4F90838F5F80930E0106
:1024400020910E0130E080914F0190E00197281714
:10245000390714F485EC18C085E816C083B1E09103
:102460000E01F0E0E15EFE4F808380910601816005
:102470008093060108C081B18093070185EA04C0FA
:1024800081B18093070184E986BFFF91EF919F910D
:102490008F913F912F910F900FBE0F901F90189525
:1024A00081E080931A02109216021092520210924A
:1024B0001902109250021092170210924F021092BD
:1024C0001802109253021092510210925402089571
:1024D00080E20E941C0F0E945012109292011092F2
:1024E00091011092940110929301E1E9F1E082913F
:1024F00081608083808182608083089580916F00F5
:10250000882309F4F7C00E94511A80911A02882387
:1025100009F4DBC082EA92E00E94120E8091C301AE
:102520009091C4016AE00E94BB0E80EA92E00E9492
:10253000120E88E992E00E94120E8091790190912A
:102540007A016AE00E94BB0E86E992E00E94120EB8
:102550008EE892E00E94120E8091BC019091BD0124
:102560006AE00E94BB0E8CE892E00E94120E84E8A2
:1025700092E00E94120E8091C8019091C9016AE018
:102580000E94BB0E82E892E00E94120E8AE792E05F
:102590000E94120E8091B9019091BA016AE00E94E6
:1025A000BB0E88E792E00E94120E80E792E00E9444
:1025B000120E80918101909182016AE00E94BB0E0F
:1025C0008EE692E00E94120E86E692E00E94120EC3
:1025D0008091A8019091A9016AE00E94BB0E84E657
:1025E00092E00E94120E8DE592E00E94120E809100
:1025F000610190E06AE00E94BB0E8BE592E00E94D0
:10260000120E84E592E00E94120E8091C00190E0CB
:102610006AE00E94BB0E82E592E00E94120E8CE4FA
:1026200092E00E94120E8091A20190E06AE00E9466
:10263000BB0E8AE492E00E94120E84E492E00E94B3
:10264000120E8091AB0190E06AE00E94BB0E82E422
:1026500092E00E94120E8CE392E00E94120E809192
:10266000B6019091B7016AE00E94BB0E8AE392E046
:102670000E94120E84E392E00E94120E80917F016C
:10268000909180016AE00E94BB0E82E392E00E947A
:10269000120E8AE292E00E94120E8091890190E06F
:1026A0006AE00E94BB0E88E292E00E94120E80E275
:1026B00092E00E94120E8091720190E06AE00E9406
:1026C000BB0E8EE192E00E94120E809118028823C8
:1026D00079F084E192E00E94120E80915501909170
:1026E00056016AE00E94BB0E82E192E00E94120E47
:1026F0000E944C1A0895209191013091920180918D
:102700006D0090916E008217930730F40E947E1244
:10271000109292011092910108951F930E94A50EAC
:102720008823F1F00E94620E182F833241F48AE070
:1027300090E00E94B50910925C0110925B018091BB
:102740005B0190915C01FC01E55EFD4F10830196F9
:10275000FC01E55EFD4F108290935C0180935B016C
:102760000E94F01A009709F4C0C08730910509F45F
:1027700059C08830910554F483309105F1F08630CA
:10278000910501F1019709F0B0C00CC08A309105A4
:1027900009F462C08B30910509F47DC0089709F0F7
:1027A000A4C043C080910C0260910E020E943605C5
:1027B000809110020E94450598C080910E020E94EF
:1027C0000D0493C080910C0290910D028830910508
:1027D000D1F08930910534F4009759F0079709F04A
:1027E00084C00CC08930910599F00A9709F07DC02A
:1027F00014C080910E0280931A0277C080910E025D
:102800008093180272C080910E02809353026DC0B3
:1028100080910E028093510268C080910E028093D5
:10282000540263C00E94630560C020910C02309185
:102830000D0237FF09C010926F0088EE93E090936D
:102840006E0080936D0051C081E080936F003093E3
:102850006E0020936D0049C080910C0290910D0292
:102860008130910579F0823091051CF4892B39F083
:102870003CC08230910549F00397B9F509C00E9428
:10288000B60733C00E94BD0730C00E94C2072DC0EA
:102890000E94C7072AC080910C0290910D028930D6
:1028A0009105C1F08A30910534F48230910561F0D0
:1028B0000897D9F40CC08B30910591F08B309105BD
:1028C00064F00C9791F40FC00E94E2190EC00E94B0
:1028D000FD170BC00E94991708C00E94031705C07E
:1028E0000E94931602C00E94E4151F9108950E9451
:1028F0008D1380911802882311F00E94D2140E9437
:102900007B138091930190919401845F914030F00A
:102910000E94331A109294011092930108958091AD
:102920009D0190919E0120E08634910508F021E000
:10293000822F08958091520190915301209150016E
:1029400030915101820F931F969587959093560170
:1029500080935501089581E0809354018091900106
:1029600080648093900108950F931F93182F63E064
:102970000E94D810812F0E949E10082F812F62E0A4
:102980000E94D810812F0E949E10382F20E0200F27
:10299000311DC9011F910F91089560E041E50E942A
:1029A000031108951F9380915401882309F461C095
:1029B00080919D0190919E018634910580F08091D7
:1029C0007000882361F480EE0E94B414909351014A
:1029D0008093500181E0809370000E949A1480914E
:1029E0009D0190919E018634910580F08091710047
:1029F000882361F482EE0E94B41490935301809373
:102A0000520181E0809371000E949A1480917000BD
:102A10008130A9F480917200813089F48091710035
:102A2000813069F480EE60E041E50E94031110926C
:102A300070001092720010929E0110929D01809180
:102A40007100813019F5809172008823F9F410919A
:102A500070001130D9F482EE60E041E50E9403116C
:102A6000109271001093720010929E0110929D01BD
:102A70000DC080915501909156018F5F9F4F31F0AD
:102A80008FEF9FEF90935601809355011F9108950A
:102A9000EF92FF920F931F93A0E0B0E0BC01CD0135
:102AA0000E949E1C7B018C012DEC3CEC4CEC52E412
:102AB0000E94051C2DEC3CEC4CEC5DE30E94A11B3C
:102AC0000E946D1CDC01CB016AE042E00E94DD0E39
:102AD0008EE20E94040EC801B7012FE632E143E8FE
:102AE0005FE30E94051C20E030E040E251E40E94D8
:102AF000A11B0E946D1CDC01CB016AE042E00E9438
:102B0000DD0E86E50E94040E1F910F91FF90EF905D
:102B100008950F931F93CF93DF938C01CCEED1E0F8
:102B200020E030E0AE0114C0F80101900020E9F788
:102B30003197E01BF10B2E173F0730F4F801E20F3D
:102B4000F31F8081888301C018822F5F3F4F219639
:102B5000FA0101900020E9F73197EC5EF1402E1761
:102B60003F0710F383EC96E00E94120EC8010E940A
:102B7000080E8FEB96E00E94120E8CEB96E00E94FE
:102B8000120EDF91CF911F910F9108950F931F9314
:102B90008C0180ED96E00E94120E8CEE91E00E9476
:102BA000080E8EEC96E00E94120EC8016AE00E94A8
:102BB000BB0E8AEC96E00E94120E87EC96E00E9413
:102BC000120E1F910F910895EF92FF920F931F9392
:102BD00083E790E00E948915109292011092910172
:102BE0001092940110929301109296011092950107
:102BF000809190018160809390018091900182602A
:102C000080939001809190018460809390018BEB80
:102C100092E00E94120E8091910190919201C397CF
:102C2000D8F183E00E9482048C0182E00E94820439
:102C30009801281B390BC901213A31053CF43FEFBB
:102C400080369307DCF08D38910514F088E31EC0C0
:102C50008C34910514F088E119C08432910514F088
:102C600088E014C02FEF8E3D920714F089E00EC06B
:102C70003FEF863B930724F081E008C080E69FEF9A
:102C800085579F4F14F083E001C087E00E940D0438
:102C90001092920110929101809193019091940170
:102CA0008B3F910518F183E00E9482048C0182E041
:102CB0000E9482047C0183EB92E00E94120EC80104
:102CC0006AE044E00E94DD0E87EA92E00E94120E64
:102CD000C7016AE044E00E94DD0E8AE00E94040E13
:102CE0000E94331A109294011092930180919501E1
:102CF000909196018151974208F48DCF8091900177
:102D00008B7F80939001109296011092950180E044
:102D10000E940D0481E090E00E94C6151F910F9162
:102D2000FF90EF900895EF92FF920F931F9384E826
:102D300090E00E94891510E0EE24E3940E941204B2
:102D4000082F0E941F04F82E80915801002349F09B
:102D5000882379F48FEF92E00E94120EE0925801DE
:102D600008C0882331F081EF92E00E94120E109289
:102D7000580180915701FF2049F0882379F480EEB3
:102D800092E00E94120EE092570108C0882331F0B1
:102D900081ED92E00E94120E1092570190E0002304
:102DA00009F491E0990F990F990F80916001877F45
:102DB000892B8093600190E0FF2009F491E08091DD
:102DC00060018E7F892B809360010E94DE03812F3A
:102DD0006AE00E944B1D992311F40E94331A84E685
:102DE00090E00E94B5091F5F143609F0A7CF80E07C
:102DF0000E940D0481E090E00E94C6151F910F9182
:102E0000FF90EF900895EF92FF920F931F9380E948
:102E100090E00E9489150E94C70701E0FF24F39407
:102E200084E2E82E0E94E10C8091A20190915A0167
:102E3000882349F0992379F480E493E00E94120EEC
:102E4000F0925A0108C0992331F082E393E00E9486
:102E5000120E10925A018091AB0190915901882372
:102E600049F0992379F48EE193E00E94120EF092DA
:102E7000590108C0992331F08FE093E00E94120EAF
:102E800010925901109260013091A201332331F068
:102E90008091AB01882311F0E0926001832F817053
:102EA0008295807F909160019D7E4091AB01242F9F
:102EB0002170220F982B922B9093600190E0332386
:102EC00009F491E0990F990F990F80916001877F24
:102ED000892B8093600190E0442309F491E0809174
:102EE00060018E7F892B809360010E94DE03802F1A
:102EF0006AE00E944B1D992311F40E94331A10E0DE
:102F00000E94E10C8AE090E00E94B5091F5F1A3030
:102F1000B9F70F5F053609F085CF80E00E940D04F8
:102F200081E090E00E94C6151F910F91FF90EF90F5
:102F30000895EF92FF920F931F93CF93DF9389E948
:102F400090E00E94891581EB93E00E94120EFF240D
:102F5000F39401E010E0E02E87EA93E00E94120E65
:102F6000C8016AE00E94BB0E84EA93E00E94120E40
:102F700087E00E948204EC010E944815CE018A532A
:102F800092408159914028F48AE993E00E94120E00
:102F900017C08FE793E00E94120E82E0CA33D80771
:102FA00018F487E793E005C0CB5CD34020F082E7BC
:102FB00093E00E94120E83E593E00E94120EFF241C
:102FC0008E2D65E00E944B1D992311F40E94331A47
:102FD00088EC90E00E94B5090F5F1F4F0531110585
:102FE00009F0B9CF8F2D90E00E94C615DF91CF91E7
:102FF0001F910F91FF90EF900895DF92EF92FF9253
:103000000F931F9386EA90E00E9489150E94E10CBD
:103010000E94CC0780E060E00E948F0580E060E0C5
:103020000E94800580E060E00E94360510929201C7
:10303000109291011092940110929301809190014D
:1030400081608093900180919001826080939001D3
:103050000E94E10CDD24FF2400E0EE248091930126
:1030600090919401893C910508F4E5C0E0FC02C010
:103070000E94331AE39424E02E1508F4EE2488EB22
:1030800096E00E94120E802F90E06AE043E00E94DA
:10309000DD0E81EB96E00E94120E809179019091F5
:1030A0007A016AE043E00E94DD0E8AEA96E00E941F
:1030B000120E8091BC019091BD016AE043E00E9434
:1030C000DD0E83EA96E00E94120E88B599B56AE09B
:1030D00043E00E94DD0E8CE996E00E94120E8AB554
:1030E0009BB56AE043E00E94DD0E85E996E00E9410
:1030F000120E8091C8019091C9016AE043E00E94DC
:10310000DD0E8EE896E00E94120E8091B90190913A
:10311000BA016AE043E00E94DD0E87E896E00E9473
:10312000120E8091C3019091C4010E9448158AE05B
:103130000E94040E8091790190917A018238910564
:1031400038F48091C8019091C9018937910570F4D4
:103150008091790190917A018238910568F080918F
:10316000C8019091C9018739910530F083E596E057
:103170000E94120E11E001C010E08091BC019091FC
:10318000BD018238910538F48091B9019091BA015E
:103190008937910570F48091BC019091BD0182380E
:1031A000910560F08091B9019091BA01873991053C
:1031B00028F08EE196E00E94120E1F5F8091790147
:1031C00090917A014A9778F088B599B54E9758F062
:1031D0008091C8019091C901079728F484EC95E08B
:1031E0000E94120E1F5F8091BC019091BD014A9711
:1031F00078F08AB59BB54E9758F08091B9019091BF
:10320000BA01079728F488E695E00E94120E1F5F26
:103210008091C3019091C4018652924028F48EEFB0
:1032200094E00E94120E1F5F112309F08DC01092CE
:103230009401109293018091910190919201895E85
:10324000934008F46FC0802F602F0E94360582E003
:103250008F1508F062C02091790130917A01802F9A
:1032600090E0063008F00A972817390780F020917F
:10327000790130917A01802F90E00A9682179307A6
:1032800030F083EE94E00E94120E10E005C084EC52
:1032900094E00E94120E11E02091BC013091BD011A
:1032A000802F90E0063008F00A972817390788F039
:1032B0002091BC013091BD01802F90E00A968217C9
:1032C000930738F088EA94E00E94120E112339F037
:1032D0003BC089E894E00E94120E1F5F35C021E0D8
:1032E000D21691F4093770F4003548F40C3310F01D
:1032F00080E006C0083218F492E0D92E03C081E0C5
:103300000E944505045107C0DD2029F4003510F066
:10331000DD24D3940C5EFF2401C0F394109292013B
:10332000109291010E94E10C82E0D81651F480E0E5
:1033300060E00E94360580E060E00E94800510E0B9
:1033400003C00E94E10C8ACE809190018E7F809311
:10335000900180E060E00E94800580E060E00E94D3
:10336000360580E060E00E948F05112391F086E32E
:103370000E940D0486E594E00E94120E83E294E020
:103380000E94120E80EF93E00E94120E0E94D50759
:1033900008C087EC93E00E94120E88EE93E00E9432
:1033A000B50980E00E940D0480E090E0112311F443
:1033B00081E090E00E94C6151F910F91FF90EF9061
:1033C000DF9008951F93CF93DF9381EB90E00E94ED
:1033D00089158FE30E940D0484EF91E00E94B509E6
:1033E00080E00E940D0484EF91E00E94B5090E94E4
:1033F000331A8FE30E940D0484EF91E00E94B50917
:1034000080E00E940D048AEF90E00E94B5090E94BE
:10341000331A11E0C0E0D0E0812F0E940D04110F9B
:10342000103408F011E0C0FD02C00E94331A80E998
:1034300091E00E94B5092196CC30D10569F78FE360
:103440000E940D0480E991E00E94B50980E00E948D
:103450000D040E94331A81E090E00E94C615DF91AE
:10346000CF911F9108958FE097E00E94120E08956A
:1034700087E197E00E94120E089581E297E00E9492
:10348000120E08958AE297E00E94120E089584E3D6
:1034900097E00E94120E08958DE397E00E94120EAD
:1034A000089586E497E00E94120E0895EF92FF922D
:1034B0000F931F938C017B0189E097E00E94120E0D
:1034C000C8016AE00E94BB0E87E097E00E94120EDE
:1034D000C7016AE00E94BB0E84E097E00E94120ED2
:1034E0001F910F91FF90EF900895AF92BF92CF92EE
:1034F000DF92EF92FF920F931F93CF93DF936C01B4
:103500008FEF9FEF90930B0280930A0290930D022E
:1035100080930C0290930F0280930E0290931102FD
:1035200080931002909313028093120290931502DD
:1035300080931402C114D104A1F1F6018081833279
:1035400081F58AE0E82E82E0F82EC0E0D0E000E0CD
:1035500010E01DC02196C6018C0F9D1F0E94A01D6A
:10356000F7019183808306301105D9F00F5F1F4F5B
:10357000F50101C0219681818A3329F08A3219F040
:1035800031968823B9F782E090E0E80EF91E5601E3
:10359000AC0EBD1EF5018081882329F08A32D1F658
:1035A00002C00FEF1FEFC801DF91CF911F910F9164
:1035B000FF90EF90DF90CF90BF90AF9008950F9362
:1035C0001F938C0181E297E00E94120EC8010E94B5
:1035D000080E87E197E00E94120E1F910F91089547
:1035E0000F931F93CF93DF930BE112E0F80101904B
:1035F0000020E9F7329780818A3209F088C0C8013B
:103600000E94751AFC01EE0FFF1FE85FFD4FC0819D
:10361000D18180E090E0D80105C0FC01E55EFD4F5E
:1036200010820196FD0101900020E9F73197EB51DE
:10363000F2408E179F0788F310925C0110925B0195
:1036400080910A0290910B028336910581F48FEFED
:103650009FEF90934E0280934D02CE0161E070E0A7
:103660000E94561A8AEB90E00E94DF1A50C08091A7
:103670004D0290914E028C179D070CF59E01281B60
:10368000390B25303105DCF4CE0161E070E00E9499
:10369000561AD0934E02C0934D02C336D10551F451
:1036A0008FEF9FEF90934E0280934D028FEC90E04E
:1036B0000E94DF1A20910A0230910B022AC0CE012B
:1036C00062E070E00E94561A81E297E00E94120EBA
:1036D00086EE96E00E94120E81EE96E00E94120E97
:1036E000CE016AE00E94BB0E87ED96E00E94120EAA
:1036F00080914D0290914E026AE00E94BB0E84EDD3
:1037000096E00E94120E87E197E00E94120E20E0E0
:1037100030E0C901DF91CF911F910F9108950F9370
:103720001F938C0184E397E00E94120EC8010E944F
:10373000080E8AE297E00E94120E1F910F910895E1
:103740005058BB27AA270ED04DC13ED130F043D1EF
:1037500020F031F49F3F11F41EF433C10EF4E095D4
:10376000E7FB29C1E92F4FD180F3BA17620773072E
:103770008407950718F071F49EF567C10EF4E09583
:103780000B2EBA2FA02D0B01B90190010C01CA011B
:10379000A0011124FF27591B99F0593F50F4503EC6
:1037A00068F11A16F040A22F232F342F4427585FB8
:1037B000F3CF469537952795A795F0405395C9F7D0
:1037C0007EF41F16BA0B620B730B840BBAF0915088
:1037D000A1F0FF0FBB1F661F771F881FC2F70EC027
:1037E000BA0F621F731F841F48F4879577956795FA
:1037F000B795F7959E3F08F0B3CF9395880F08F0E3
:103800009927EE0F9795879508950CD0EBC0E3D0DC
:1038100040F0DAD030F021F45F3F19F0CCC0511104
:1038200015C1CFC0F0D098F39923C9F35523B1F354
:10383000951B550BBB27AA2762177307840738F01F
:103840009F5F5F4F220F331F441FAA1FA9F333D07E
:103850000E2E3AF0E0E830D091505040E695001C32
:10386000CAF729D0FE2F27D0660F771F881FBB1FEE
:10387000261737074807AB07B0E809F0BB0B802DC8
:10388000BF01FF2793585F4F2AF09E3F510568F014
:1038900092C0DCC05F3FECF3983EDCF386957795F1
:1038A0006795B795F7959F5FC9F7880F911D969516
:1038B000879597F90895E1E0660F771F881FBB1F72
:1038C000621773078407BA0720F0621B730B840B1F
:1038D000BA0BEE1F88F7E095089504D06894B111F3
:1038E000B5C0089598D088F09F5790F0B92F9927C8
:1038F000B751A0F0D1F0660F771F881F991F1AF0FB
:10390000BA95C9F712C0B13081F09FD0B1E00895E7
:103910009CC0672F782F8827B85F39F0B93FCCF368
:10392000869577956795B395D9F73EF490958095F0
:10393000709561957F4F8F4F9F4F0895E89409C010
:1039400097FB3EF490958095709561957F4F8F4FD2
:103950009F4F9923A9F0F92F96E9BB279395F695E8
:10396000879577956795B795F111F8CFFAF4BB0F66
:1039700011F460FF1BC06F5F7F4F8F4F9F4F16C0CA
:10398000882311F096E911C0772321F09EE8872F54
:10399000762F05C0662371F096E8862F70E060E010
:1039A0002AF09A95660F771F881FDAF7880F969589
:1039B000879597F9089597F99F6780E870E060E030
:1039C00008959FEF80EC089500240A9416161706B8
:1039D00018060906089500240A9412161306140600
:1039E00005060895092E0394000C11F4882352F063
:1039F000BB0F40F4BF2B11F460FF04C06F5F7F4F1B
:103A00008F4F9F4F089557FD9058440F551F59F001
:103A10005F3F71F04795880F97FB991F61F09F3FBB
:103A200079F087950895121613061406551FF2CFE4
:103A30004695F1DF08C0161617061806991FF1CF34
:103A400086957105610508940895E894BB2766275B
:103A50007727CB0197F90895629FD001739FF001FA
:103A6000829FE00DF11D649FE00DF11D929FF00D0E
:103A7000839FF00D749FF00D659FF00D9927729F45
:103A8000B00DE11DF91F639FB00DE11DF91FBD01D0
:103A9000CF0111240895991B79E004C0991F96174E
:103AA00008F0961B881F7A95C9F780950895AA1B80
:103AB000BB1B51E107C0AA1FBB1FA617B70710F019
:103AC000A61BB70B881F991F5A95A9F7809590954B
:103AD000BC01CD01089597FB092E07260AD077FD7A
:103AE00004D0E5DF06D000201AF4709561957F4F71
:103AF0000895F6F7909581959F4F0895A1E21A2EAB
:103B0000AA1BBB1BFD010DC0AA1FBB1FEE1FFF1F81
:103B1000A217B307E407F50720F0A21BB30BE40BD1
:103B2000F50B661F771F881F991F1A9469F7609518
:103B30007095809590959B01AC01BD01CF010895D2
:103B4000FC0188279927E89421912032E9F3293054
:103B500010F02E30C8F32B3241F02D3239F4689436
:103B600004C00E94DF1D820F911D219120532A3035
:103B7000C0F31EF4909581959F4F0895FB019F011E
:103B8000E8944230C4F04532B4F44A3029F497FB4B
:103B90001EF4909581959F4F642F77270E94571DA3
:103BA000805D8A330CF0895D8193CB010097A1F78A
:103BB00016F45DE251931082C9010C94E71D7AE07E
:103BC000979F902D879F802D910D11240895DC01E2
:103BD000FC01672F71917723E1F7329704C07C9144
:103BE0006D9370836291AE17BF07C8F30895F89480
:023BF000FFCF05
:103BF200014C065206300546042A0F300FC8000158
:103C02000101014C6967687453656E736F722054C9
:103C12006573740042756D7065722054657374002B
:103C22004143532054657374004261747465727920
:103C32002054657374004D6F746F722054657374F1
:103C4200004C454420546573740052657365747466
:103C5200696E672049442D436F756E746572004327
:103C620068616E67696E67206C617374494420668F
:0E3C7200726F6D20393920746F202D310000E3
:00000001FF
